:10000000C013002025160000CF470000F91500009E
:10001000F9150000F9150000F915000000000000B6
:1000200000000000000000000000000001130000BC
:10003000F915000000000000AD120000F9150000E5
:10004000B1130000B1130000B1130000B1130000A0
:10005000B1130000B1130000B1130000B113000090
:10006000B1130000B1130000B1130000B113000080
:10007000B1130000B1130000B1130000B113000070
:10008000B1130000B1130000B1130000B113000060
:10009000B1130000B1130000B1130000B113000050
:1000A000B1130000B1130000B1130000B113000040
:1000B000B1130000B1130000B1130000B113000030
:1000C000B1130000B1130000B1130000B113000020
:1000D000B1130000B1130000B1130000B113000010
:1000E000B1130000B1130000B1130000B113000000
:1000F000B1130000B1130000B1130000B1130000F0
:1001000053B94AB9002908BF00281CBF4FF0FF317E
:100110004FF0FF3000F00CB8ADF1080C6DE904CEE3
:1001200000F008F8DDF804E0DDE9022304B07047D0
:10013000704700BF2DE9F04F07468C460846099EE0
:1001400015463C461946002B40F0C6808242B2FA62
:1001500082F746D94FB1C7F1200E24FA0EFE00FAFD
:1001600007F3BD404EEA030CBC404FEA15481FFAA6
:1001700085FEBCFBF8F9220C08FB19C309FB0EFA3B
:1001800042EA03439A4528D9EB1809F1FF3004D21B
:100190009A4502D9A9F102002B44A3EB0A03A4B2A9
:1001A000B3FBF8F208FB123302FB0EFE44EA0344F1
:1001B000A64514D92C1902F1FF3303D2A64501D963
:1001C000931E2C44A4EB0E0443EA00401EB1FC40F5
:1001D000002334607360BDE8F08F4846DDE71346C6
:1001E000F0E702B9FFDE87BB831A01214FEA154E03
:1001F000AAB2B3FBFEFC200C0EFB1C330CFB02F876
:1002000040EA0343984563D9EB180CF1FF3004D260
:10021000984502D9ACF102002B44A3EB0803A4B229
:10022000B3FBFEFC0EFB1C330CFB02F244EA03445E
:10023000A2424FD92C190CF1FF3304D2A24202D9A9
:10024000ACF102032C44A41ABEE7C7F1200C20FA3B
:100250000CF800FA07F324FA0CFCBD404CEA030248
:100260004FEA154EABB2B8FBFEFC110C0EFB1C8026
:100270000CFB03F941EA0040814504FA07F423D955
:1002800028180CF1FF3104D2814502D9ACF10201EA
:100290002844A0EB090092B2B0FBFEFC0EFB1C0050
:1002A0000CFB03F842EA004398450FD9EB180CF118
:1002B000FF3204D2984502D9ACF102022B44A3EBE1
:1002C000080342EA014191E76146E2E76246F6E748
:1002D0006046A2E76346B6E7834205D90EB1C6E998
:1002E00000700021084676E7B3FA83F181B98342B2
:1002F00001D3BA420AD8BC1A60EB030301209C4622
:10030000002E68D0C6E9004C002164E70846F7E7F4
:10031000C1F1200C8B4022FA0CF41C4302FA01F5C7
:1003200000FA01F327FA0CF220FA0CFB4FEA144909
:100330001343BBFBF9F81FFA84FE09FB18BB1A0C28
:1003400008FB0EFA42EA0B42924507FA01F73ED942
:10035000A21808F1FF3004D2924502D9A8F1020098
:100360002244A2EB0A029BB2B2FBF9F809FB182265
:1003700008FB0EFE43EA024296452AD9A21808F16C
:10038000FF3304D2964502D9A8F10203224443EA7E
:100390000040A0FB0593A2EB0E029A42CE4698467F
:1003A00002D306D14F4504D2B9EB050E63EB040826
:1003B000013886B1B7EB0E0362EB080707FA0CFCB5
:1003C000CB404CEA0303CF40C6E900379CE74046E8
:1003D000C7E74346DBE73146FDE60000014804F08D
:1003E000C9B800BFC0550000014B1B68184700BFCB
:1003F00000000020014B1860704700BF0000002083
:1004000007B50B46002102460091034800F0E6F8CC
:1004100003B05DF804FB00BFE90300002DE9F84FCD
:10042000B0F8189019F00808044693460DD0012939
:100430000CBF49F0100949F02009A0F818908BF37F
:100440001188BFF36F8FBDE8F88F09F00709022903
:1004500007D1204604F09BF80028F0D00128238B18
:100460004ED16769218B002F15DA256821F007012D
:10047000C4E9008841F0010121830026218B01F0AD
:10048000070ACA4502D0A368002B5AD10DB9002E25
:1004900071D0002356E001F007035A1F012A1ED82D
:1004A00021F00701062B256889B2C4E900880AD12A
:1004B0003DB1638B2A46126801339BB2002AFAD100
:1004C000638341F002012183204604F060F8064670
:1004D0000028D3D0238B43F020032383CDE7042BC4
:1004E0000CD121F0070189B22183204604F04FF896
:1004F00005460028C1D041F0200121830025BCE73A
:10050000032809D1226923F00703166843F0060384
:10051000238300252F46B1E7042806D1226923F062
:100520000703566843F00403F2E7052806D1226961
:1005300023F00703966843F00503E9E700252E46FC
:10054000E8E7012341F0080121838BF31188BFF311
:100550006F8FFBB985BB16B11F492046B0474FF0DE
:100560002003EFF3118B83F31288BFF36F8F238B7C
:1005700023F008032383238BDA0625D523F0100309
:1005800023830121B4F8189009F0070900297FF4AA
:100590005EAF54E7A1680029DCD0D1F80090D1F813
:1005A00004B03B4652462046D847B9F1000FD1D09F
:1005B0004946D9F80090F2E729463B465246204684
:1005C0002D6804F000F8C5E713F020011EBF23F0EA
:1005D000200323830221D5E7F34500002DE9F04FE6
:1005E00091B08B46029092461C4600259AF8000076
:1005F00008B9284663E325280AF1010707D0029BC2
:10060000594698470028C0F25A83013512E2182251
:1006100000210AA804F007F99AF80130252B78D0B8
:1006200000221046964694461646394617F8013B76
:100630002B2B00F09D8000F29480202B00F09B80FB
:10064000232B00F09B802EB19DF8306046F004060D
:100650008DF83060BCF1000F05D09DF8306046F099
:1006600008068DF83060BEF1000F05D09DF83060AF
:1006700046F010068DF8306028B19DF8300040F04B
:1006800020008DF830002AB19DF8302042F0400261
:100690008DF830209DF8302002F04400442803D12A
:1006A0006FF386128DF830209DF830202A2B42F00F
:1006B00080028DF830207BD19DF8312042F001027C
:1006C0004B1C8DF831201A782E2A9DF831200CBF52
:1006D0000121002161F341028DF8312074D15A7853
:1006E0002A2A6AD0013300210A26184610F8012B65
:1006F000A2F13007092F40F28E809DF830200E9134
:10070000C2F3400040EAD17161F341028DF830201C
:100710005AE00AF102078DF833309DF83130D907DD
:1007200040F1498154F8049BB9F1000F07DA9DF8B4
:10073000302042F004028DF83020C9F100095A0738
:1007400040F1428154F8048BB8F1000F80F24181EE
:100750009DF831306FF341038DF831304FF0FF38A1
:1007600037E12D2B0CD0302B7FF46DAF01225CE7ED
:100770004FF0010C59E74FF0010E56E7012054E706
:10078000012652E70CFB0202303A33461E4616F8A9
:10079000010BA0F13007092FF4D9994293D09DF8AD
:1007A00030100D92D20F62F341018DF830108AE7BC
:1007B0000B4600224FF00A0CE8E79DF8312042F08A
:1007C00004028DF8312002331F4617F8012B6C2AE2
:1007D00041D025D8682A2BD06A2A46D04C2A4CD042
:1007E0001F4617F8012B9DF831308DF83320782AF9
:1007F00000F2D980572A4DD8412A03D0453A022A1F
:1008000000F2D1809DF83230042262F302038DF8A9
:10081000323001239EE006FB01213039034664E7B4
:10082000742A26D07A2ADBD19DF8313006220DE0D9
:100830005A78682A9DF8312006D1012161F3C60259
:100840008DF831209F1CCCE71346022262F3C603C9
:100850008DF83130C5E75A786C2A9DF8312001D1E6
:100860000421EBE713460322F0E79DF8313005221F
:10087000ECE79DF831300722E8E7BDF8303023F48B
:10088000F04323F0020343F4804343F00203ADF846
:100890003030A6E7A2F15801202900F2848001A09F
:1008A00050F821F069090000A7090000A70900001D
:1008B000A7090000A7090000A7090000A709000078
:1008C000A7090000A709000005080000A70900000B
:1008D000690900002909000005080000050800005A
:1008E00005080000A709000029090000A709000069
:1008F000A7090000A7090000A7090000710900006E
:10090000690900008D090000A7090000A70900007F
:100910008D090000A709000069090000A70900006F
:10092000A7090000690900009DF83210012003F0BA
:10093000780360F30201402B8DF8321002BF9DF85E
:10094000301041F001018DF83010632A31D1003BA5
:1009500018BF01239DF83020C2F340010B4363F31D
:1009600041028DF83020D8E69DF832100220DEE7F3
:100970009DF8322003F07803A3F14000032161F3D6
:10098000020243428DF832204341E3E79DF83220D2
:10099000032113F0780F61F302028DF8322014BFA7
:1009A00001230023D6E79DF8303043F001038DF892
:1009B00030300023CEE79DF93020002AB4BFDDF8A7
:1009C00034904FF0FF39BAE69B077FF5C7AEDDF8EC
:1009D00038809DF831100023CDE90D339DF8323079
:1009E00003F00703012BC1F3C30135D1CB1E042B48
:1009F00022D8DFE803F003090921210054F8043B61
:100A0000DA17CDE90A3206E0073424F00704F4E8E7
:100A10000223CDE90A239DF8303013F0030659D0A4
:100A200002983B465246594603F0ACFE0028C0F2FD
:100A300046810544BA46D9E554F8043B01294FEAFA
:100A4000E372CDE90A3202D19DF92830D8E70229B4
:100A5000E1D1BDF92830D3E7022B29D1CB1E042BDD
:100A600013D8DFE803F0030A0A12120022680A9280
:100A70000023201D0B930446CDE7E01D20F0070066
:100A8000F0E80223CDE90A23F5E754F8043B0A9382
:100A900001294FF000030B9305D19DF828300A93EC
:100AA00000230B93B7E70229B5D1BDF82830F6E74C
:100AB000042B09D1E31D23F0070303F10804D3E954
:100AC0000023CDE90A23A6E7032B04BF54F8043B17
:100AD0000A93A0E79DF833007828ABD8622822D883
:100AE00025283FF48CAD5828A4D10DF1260300939E
:100AF000DDE90A0104AB0CAA03F0FEFD8246B8F161
:100B0000000F0DF126000CDB9DF83020A0EB0A034E
:100B10006FF3861298458DF8302002D9A8EB0303B5
:100B20000D9380463EE06338152883D801A252F821
:100B300020F000BFB50B0000190C0000350A0000C2
:100B4000350A0000350A0000350A0000190C0000C3
:100B5000350A0000350A0000350A0000350A000099
:100B6000730C0000410C0000450C0000350A000029
:100B7000350A00008D0B0000350A0000410C000012
:100B8000350A0000350A0000410C0000B8F1000FE2
:100B9000DDF828A00ADB4146504603F030FE0AEBA0
:100BA00000080026BAF1000F0CD143E7504603F0CD
:100BB0001FFEF4E70A9B8DF8103000260DF1100A95
:100BC0000DF11108A8EB0A0306B101339DF832209C
:100BD000D00668D5023352060D9948BF0E9A0B44D1
:100BE00048BF9B18B9F1000F76DD9DF83020A9EBC6
:100BF0000309C2F38003039353076DD4500661D5F4
:100C000046B1029B594630469847002857DB039B64
:100C100001351E46302356E01E070FD413F0100690
:100C200018BF2026DDE90A23002BBFF65EAF524233
:100C300063EB4303CDE90A232D2656E72B26F1E784
:100C4000002652E70A9840B30DF1260300930CAA40
:100C500004AB002103F050FDBDF8323003F0EF0388
:100C600043F4F04343F010038246ADF832300026DF
:100C700045E70A9B07293FF6DDAEDFE801F00C04EB
:100C8000060C08080C0C1D70D4E61D80D2E6EA178D
:100C9000C3E90052CEE61D60CCE6DFF8C8A00646E8
:100CA0000AF105088EE7110748BF013393E718469C
:100CB00003935946029B98470028039B04DA11B01E
:100CC000BDE8F08F20234D444A46002AA5EB0901D8
:100CD00009F1FF39EBDC0D4636B1029B594630462F
:100CE00098470028EBDB01359DF83230D90601D456
:100CF0001A0706D5029B5946302098470028DEDBAC
:100D000001359DF83230DB0607D59DF83300029B94
:100D1000594698470028D2DB01350D9E2E44731B9F
:100D2000002B16DC029843465246594603F02AFD32
:100D30000028C4DB0544A944A9EB0503002B7FF779
:100D400079AE029B5946202098470028B7DB013531
:100D5000F2E7029B5946302098470028AFDB013567
:100D6000DDE700BFC655000008B54FF02002EFF3E5
:100D7000118382F31288BFF36F8F00F0D3FD034815
:100D800003F0F8FB00F00AFAFCE700BFCC550000C6
:100D900001F000BD2DE9F84305464FF02003EFF3C5
:100DA000118683F31288BFF36F8F0E4B1C689CB1C2
:100DB0000D4FDFF838804FF00C09D4E90132002DD7
:100DC00008BF13462BB198F8142009FB02F2B85C57
:100DD00098472468002CF0D186F31188BFF36F8FF9
:100DE000BDE8F883E0020020F40200206C09002036
:100DF00038B51A4B1C7DBFF35B8F04F01F03012233
:100E00009A40174B6109D04303EB810353E8001F5D
:100E100001EA000543E8005CBCF1000FF6D1BFF326
:100E20005B8F114213D00F4B0F4D8BB10C236343DB
:100E3000EA18E85C517803F00EFD0020FFF7AAFFE6
:100E40000C235C432A1900232B51C2E9013338BD1E
:100E500083F31188BFF36F8FEFE700BF6C090020A9
:100E60000003002057480000F40200202DE9F04163
:100E7000334B07461D7D4FF02003EFF3118883F3BA
:100E80001288BFF36F8F0C242E4B2F4E6C431A1910
:100E9000195D002949D007CA06EB040C8CE807004D
:100EA00000221A5588F31188BFF36F8F0C236B4310
:100EB000F218F05CB8B37B1C0FD0D2F808C02348FE
:100EC000234A4FF4004400210023ECFB0401FFF708
:100ED00017F90121381A04F016F902F0F7FC012085
:100EE000FFF758FFBFF35B8F05F01F020121914010
:100EF000184A6B0902EB830353E8002F0A4343E8C7
:100F000000200028F8D1BFF35B8F134B33B10C20C6
:100F100068433318305C597803F091FCFFF768FFA1
:100F200002F0A4FE0120BDE8F0810146284600F051
:100F300015F80028B6D007C8344484E80700B1E7A4
:100F40006C090020E8020020F40200203F420F005C
:100F500040420F00000300203F4800002DE9F04F01
:100F600085B00E4603A900F041F8039B01931C4B8A
:100F7000DFF87080D3F800A0441E24B24FF400477D
:100F80004FF0000B631C04D10025284605B0BDE8D6
:100F9000F08F019B144A04EB440503EB8505C4461E
:100FA00068685946E0FB07C100236046FFF7A8F8D0
:100FB0008146A8680C4AC4465946E0FB07C1002395
:100FC0006046FFF79DF8BAF1FF3F01D0824504D992
:100FD000721CDAD04844B042D7D9013C24B2D1E7E0
:100FE000040000203F420F0040420F0008B9024BAE
:100FF0000B600020704700BFD8530000014803F089
:101000000DB900BFD853000010B5044618B90D4BF8
:101010000D485B689847616808290DD031F00403DA
:101020000AD011F0020108D00848214603F05EFF03
:10103000002323600023636010BD2068142203F0A6
:10104000F2FBF7E7F0000020F55500000403002054
:1010500008B508B34368042B10D101220368BFF31D
:101060005B8F53E8001F002903D143E800200028CC
:10107000F7D1BFF35B8F0BD1002008BD53B10068DF
:101080004FF0FF324FF0FF3302F0CCFA0028F3D0DC
:101090000348F2E70348F0E76FF4E040EDE700BFF4
:1010A000E98FFFFFEA8FFFFF08B5D0B14368042B3B
:1010B00011D100220368BFF35B8F53E8001F0129A1
:1010C00003D143E800200028F7D1BFF35B8F074826
:1010D00008BF104608BD3BB1006802F01BFB0020B2
:1010E000F8E76FF4E040F5E70148F3E7E98FFFFF29
:1010F000EA8FFFFF10B5044618B9164B16485B6817
:1011000098476368042B23D0082B21D0CBB92368E0
:10111000BBB912484FF0FF324FF0FF33214602F0C7
:10112000A9F908B923681BB90A4B0D485B689847B1
:1011300020681422002103F076FB636843F0020369
:101140006360206803F010FF636843F0010363608D
:1011500010BD00BFF0000020F55500000403002082
:101160001B56000008B5064906484023142203F028
:10117000A2FEBDE808400449044803F0AFB800BF30
:101180002003002004030020F0530000E05300007F
:10119000014910220A60704710ED00E072B640402D
:1011A00080F31188BFF36F8FBFF34F8F30BF62B6EC
:1011B000BFF36F8F704700BF72B6494081F311884B
:1011C00020BF80F3118862B6704700BF43B2002B86
:1011D00008DB012200F01F0002FA00F05B09024A5E
:1011E00042F82300704700BF00E100E0054B4209D0
:1011F00000F01F0053F82220012303FA00F01040F2
:10120000704700BF00E100E043B2002BA8BF03F12C
:10121000604301F10101B8BF064B4FEA4111ACBF79
:1012200003F5614300F00F00C9B2B4BF195483F84D
:101230000013704714ED00E030BFFFF7FDBF00BFA3
:101240000B4A08B50B4B22F07F029A60BFF34F8F19
:10125000BFF36F8FD3F8882022F47002C3F8882080
:1012600002F038F802F032FE00F0D0F902F076F821
:101270000000000000ED00E0094A0A49936809688F
:101280009967094958674B6843F080534B600023C6
:1012900083F31188BFF36F8F9368986F704700BF17
:1012A0006C0900203455000000ED00E012498A6806
:1012B0004FF030001044EFF3098C80E8F01F20203D
:1012C00080F31288BFF36F8F0C4F4FF00066CA692E
:1012D0008A603E60506F0023536780F3118804B525
:1012E000104600F02FFABDE8044002F1300090E80B
:1012F000F01F8CF3098870476C09002004ED00E0B2
:101300001EF0040F0CBFEFF30880EFF30980816932
:1013100011F8021C0229FFD001B503F050FA01BDFB
:1013200042F8203C009B42F81C3C0A49019B42F8D1
:10133000183C029B42F8143C21F001014FF08073ED
:1013400042F8043C42F8081C0023203A0265436737
:10135000704700BFE5460000094A0346906870B137
:1013600013F1160F406E05D0A0F140029A4205D845
:10137000834203D2814228BF00207047002070477B
:101380006C09002008B5094B98600D46144600F022
:10139000D9F9204685F30988002163B681F31188C5
:1013A000BFF36F8F0022002303F09CF96C0900202B
:1013B00001B572B60B4A906900281EBF00219161E9
:1013C00003F0C3FD62B6EFF30580A0F110004FEA11
:1013D000C0000549014409C99847BDE801400349D7
:1013E000084700006C0900202C520000F113000097
:1013F000044B9968D869884203D003494FF0805262
:101400000A6070476C09002004ED00E038B51C4B01
:1014100014469A6A9A6A9A6A0546900720D5586BCC
:101420009A6A12061CD519B19A6A22F080029A6251
:101430009A6A9A6A9A6AD20615D49B6A9B0712D452
:1014400000200F4B9A6A920642BF5A6A22F4005259
:101450005A629A6A42F0FF029A620023237038BDF2
:101460006FF01500E4E7064B5B681905E8D52946DF
:10147000FFF772FF0028E3D080F309880220E0E73D
:1014800000ED00E00D4B9A6A9A6A9A6A920508D5B7
:101490009A6B9A6A120404D518B19A6A22F400422F
:1014A0009A62064B9A6A9A6AD20558BF9A6A9A6AF1
:1014B000002042F47F429A620870704700ED00E01D
:1014C000F0B5474B5B688BB00D46C3F308030026AD
:1014D00086F31188BFF36F8F02F07F41B1F17F4F28
:1014E00011D102F00C0108290DD0120701D40546D4
:1014F00001260022033B8DF80720032B54D8DFE898
:1015000003F00455595D3546F3E7354BDC6A14F0BA
:10151000020449D1DA6A002A16DBDC6A14F080443E
:1015200012D0AA6932F8021C4DF6027291420AD01A
:101530009A6AD2B20AB30DF1070201212846FFF7D9
:1015400065FF044600E02C689DF807309BB9202217
:10155000294602A803F05CF9099B002E3BD0C3F397
:10156000080222B96FEA53236FEA4323099302A9C1
:10157000204603F022F90BB0F0BD9F6A17F47F47B5
:1015800005D00DF107010120FFF77CFFD9E79C6A28
:1015900014490C40D8D09A6A9A6A9A6A9A6A9A6AE6
:1015A0009A6A9A6A0A439A620024CDE70DF107020B
:1015B0000021C3E70DF107010020E5E7084B9A6A17
:1015C0009A6A9A6A9A6A9A6A9A6A9A6A6FEA024266
:1015D0006FEA1242E7E723F4FF7323F00103C5E744
:1015E00000ED00E00000FFFF024A536943F01003E2
:1015F0005361704700ED00E0EFF30880EFF30981DD
:1016000001B57246FFF75CFF01BD00BF044800232F
:101610002021C2180133302B82F80013F9D1704712
:1016200000E100E0002080F31488BFF36F8FFFF724
:10163000AFFB00200D490860BFF34F8F0C4880F3CB
:10164000088800F02BF8202080F3118809484FF417
:101650000461401880F30988EFF3148002210843E5
:1016600080F31488BFF36F8FFFF7EAFD94ED00E07D
:10167000C0130020801500200749D1F890200023D6
:10168000C2F307221846934200D17047C1F8983040
:10169000C1F8A0000133F6E700ED00E008B572B62E
:1016A000002383F31388FFF7E7FF144B4FF0FF325B
:1016B000C3F88020C3F88420C3F88820C3F88C20A6
:1016C000C3F89020C3F89420C3F89820C3F89C2056
:1016D000C3F88021C3F88421C3F88821C3F88C2182
:1016E000C3F89021C3F89421C3F89821C3F89C2132
:1016F00062B6BFF34F8FBFF36F8F08BD00E100E00C
:10170000084B9B6883420BD1EFF3058343B1064B33
:101710005A6842F080525A605A6A22F400425A6271
:1017200002F074BB6C09002000ED00E0024B034A9C
:101730000348012100F06EB80000042000000020E2
:1017400004540000426E054B403A1A60044A40219E
:10175000C3E901121846012100F066B820080020F4
:1017600000000B15F0B51F4F00268E4201DB10461E
:10177000F0BD44689CB353B104F1FF3C14EA0C0F74
:1017800018D11F2C16D905681CEA050F12D1202C80
:101790000568D0F808C0D2B20FD9B4F1004F0ED806
:1017A000013CB4FA84F4C4F11F046400072A4CEA33
:1017B000040406D96FF01502D9E70824F6E73E24A1
:1017C000F4E725F01F05154345F0100544F001042A
:1017D000C7F89820C7F89C500132C7F8A0400136DE
:1017E0000C30C2E700ED00E0044B0522C3F8942062
:1017F000BFF34F8FBFF36F8F704700BF00ED00E066
:10180000BFF35F8F024B0022C3F89420704700BFE4
:1018100000ED00E010B5034C01232278FFF7A2FF92
:10182000207010BD7C0B002008B5094A00231278F7
:10183000FFF798FF10F1160F02D0064A072800DDC7
:1018400008BDC2F89800C2F8A0300130F6E700BF2A
:101850007C0B002000ED00E014490868082810B552
:1018600021D8FFF7CDFF124C49680022904201F1C8
:101870000C0105D10F4B1870FFF7B6FF002010BD0B
:10188000C4F8982051F80C3C23F01F03134343F095
:101890001003C4F89C3051F8043C43F00103C4F831
:1018A000A0300132E2E74FF0FF30E8E710540000CB
:1018B00000ED00E07C0B0020014B1860704700BF7A
:1018C0002800002010B54FF02003EFF3118083F3C0
:1018D0001288BFF36F8F114A0123C2F840354FF0D1
:1018E00080424FF08051C2F87835D1F83041082C51
:1018F00008D1D1F83411052904D8094C615C09B12B
:10190000C2F838364FF080430122C3F8802580F3B7
:101910001188BFF36F8F002010BD00BF00E00140B1
:10192000575600004FF08043C0B2C3F81C05BFF308
:101930004F8F0549054BCA6802F4E0621343CB6040
:10194000BFF34F8F00BFFDE700ED00E00400FA0594
:1019500020B1034B800143F001031847704700BFDB
:10196000D0530000084B70B5C31A0D4607499B10B1
:10197000044659430648402202F08FFF2B46014699
:101980002046BDE8704018473C080020B76DDBB624
:10199000B451000073B50C4C0C4A4023041B009357
:1019A0000D460B460A49A41061430646094802F059
:1019B000A0FF011E05DA30462B4602B0BDE870409C
:1019C000184702B070BD00BF3C080020634900000A
:1019D000B76DDBB6B4510000002270B5012104469A
:1019E0001046FFF711FC0F4801F05AF80E4B9842D1
:1019F00015D103F08DF926690C49304602F016FE28
:101A000000280BDB246909490125356404F11C0019
:101A100002F00CFE002801DBE564002070BD6FF0D1
:101A20000400FBE7651A00000000AD0B5C540000E9
:101A300001460C2309484B4370B5C418D4E90E562F
:101A400000224033A263184402F014FF2DB1324645
:101A50002B460348BDE87040184770BD3C08002085
:101A6000B451000010B1012804D07047034B1B6C27
:101A70005B0701D1FFF7DCBF704700BF3C080020C7
:101A800008B54FF02003EFF3118183F31288BFF301
:101A90006F8F124A136843F0020013F001031060C5
:101AA0000CD04FF08042D2F80C34D2F80C2413F052
:101AB000010303D00A4802F0DDFE012381F31188FF
:101AC000BFF36F8F23B1BDE808400020FFF7B0BF20
:101AD000BDE80840012003F028B900BF8C080020B1
:101AE0007C0800201FB500220123CDE90223094A0A
:101AF000CDF800D06B46CDF804D002F02BFF0028C3
:101B000005DB4FF480420023684601F05FFE05B01C
:101B10005DF804FB81490000094BBFF35B8F53E87C
:101B2000002F22F0020143E800100028F7D1BFF394
:101B30005B8FD30702D4012003F034B9704700BF94
:101B40008C0800202DE9F0413949BFF35B8F07462F
:101B5000012251E8003F41E800200028F9D1BFF3FD
:101B60005B8F33B9334934484B60CB608A6002F0F5
:101B700070FD7B1E012B2FD8012F07D14FF0804322
:101B8000D3F81C3403F00303012B25D003F0D7F95D
:101B9000044618B9294B1B78002B41D14FF0200384
:101BA000EFF3118683F31288BFF36F8F0124DFF800
:101BB00090804FF08045D5F81834D5F81824D2031A
:101BC0000CD503F00303012B01D0012F06D10CB378
:101BD00086F31188BFF36F8FBDE8F081ACB130465A
:101BE000FFF7EAFAD5F81835002BE4D1D5F804212F
:101BF000002AE0D0C5F80431D5F804310123C5F836
:101C00001835C8F88031AB60D5E70021212002F0FB
:101C1000DDF8E7E74FF080430222C3F80423DBE757
:101C20004FF080430222C3F808230646BFE700BFF7
:101C3000900800202C08002058080020910F002058
:101C400000E100E008B5084B0848186003F00AF905
:101C500038B10748FFF730FE0548FEF7CBFB002000
:101C600008BD6FF01200FBE794080020145200003A
:101C7000751C00000A2838B5074D044604D12868B1
:101C800083680D215B68984728688368E1B25B68C8
:101C90009847204638BD00BF9408002030B5406802
:101CA000047B01F01F05B2F5001F45EA441585B01D
:101CB0004FF0000405D1284601F074F9002005B06A
:101CC00030BDB2F5800FCDE9024434D1B3F1007FCD
:101CD0000CBF042305238DF80830836823FA01F133
:101CE000C9071AD4B2F1A07F17D16A09012A05F0F9
:101CF0001F031C4A03F5E07318BF4FF0A04252F8CF
:101D00002330DB0709D40DF107042146284601F0F2
:101D1000ADF8154B984219D003940023194602AA36
:101D2000284600F07DFF114B984218D1012128462A
:101D300001F0F0F8C2E7B3F1C06F05D0B3F1007F56
:101D40000CBF02230123C6E70323C4E7204601F0AA
:101D5000DBF8064B9842DFD06FF00B00AFE76FF077
:101D60001500ACE7000300500400AD0B0000AD0B04
:101D700010B501F0B9F8044668B901F08DF8084BC8
:101D800098420AD10748214601F06AF82246052107
:101D90000620FFF739FA002010BD6FF00400FBE7C2
:101DA0000000AD0BA91D0000420970B5034602D02A
:101DB000012A15D070BD0B4E326951680029F9D047
:101DC00003F01F0301250C689D408A682A4002D059
:101DD0004B6830469847002CECD021462468F4E745
:101DE000014EE9E7CC510000E45100002DE9F04339
:101DF000D0F8048098F80C3001F01F0685B046EA50
:101E000043160F4630460DF10301144601F02EF83B
:101E100014F4403581460BD1304601F0EBF8434BCA
:101E2000994503D19DF8030001F068F8002057E0C0
:101E30000023194602AA3046CDE9023300F0F0FE35
:101E40003A4B984202D06FF0150049E0814503D12A
:101E50009DF8030001F052F8A50354D540F2063373
:101E60002340B3F5837F3ED00CD8062B15D004D881
:101E70009BB1022BE7D104230FE0B3F5807FE2D1C1
:101E800001230AE040F2022293422ED0B3F5407FB4
:101E90002DD0B3F5007FD6D102238DF8043084F421
:101EA0008033C3F30043E0068DF8053054BFC4F31C
:101EB0004013032321038DF806301AD5D8F80430D7
:101EC000012101FA07F7C3F80875002201A930467D
:101ED00000F054FF154B984214BF6FF0150000201E
:101EE00005B0BDE8F0830723D7E70523D5E7032333
:101EF000D3E7620341BFD8F80430012101FA07F7A4
:101F0000C3F80C75E1E7E3064FF0000354BFC4F3D8
:101F1000401403241A4601A930468DF8044000F00D
:101F20007FFE024B984281D08DE700BF0000AD0BD1
:101F3000F0B54B79012B26D0032B21D110268B79BC
:101F4000032B1DD1CC790CB1012C19D10A7912B116
:101F5000022A15D10E220B684568B3F5164F2D687D
:101F600065D02DD8B3F5165F64D016D8B3F5966F4B
:101F700062D00AD8B3F5967F61D0B3F5167F61D0F1
:101F80006FF0850052E00026D9E7B3F5166F5CD0FC
:101F9000B3F5965FF4D1374B3CE0B3F5E14F57D042
:101FA00007D8B3F5615F55D0B3F5964FE8D1324B02
:101FB00030E047F61227BB42E2D14FF4000329E09C
:101FC000B3F5613F48D013D8B3F5963F47D009D851
:101FD0004DF6C027BB4244D0B3F5614FD0D14FF48A
:101FE0006B0317E0B3F5E13FCAD14FF0EB7311E09B
:101FF000B3F5612F38D008D8204FBB4237D0B3F5A6
:10200000E12FBDD14FF0E86304E01D4FBB42B7D1D3
:102010004FF080530069C5F82435031D03C93443CC
:102020002243C5F86C2583E803000020F0BD4FF47F
:102030001D03EFE7134BEDE74FF49E23EAE74FF460
:10204000A033E7E74FF41C33E4E74FF41D23E1E747
:102050000D4BDFE70D4BDDE74FF06C73DAE70C4B10
:10206000D8E74FF46503D5E74FF07063D2E74FF040
:102070008063CFE700B0130000A04E0090D00300B3
:1020800040420F000050270000C0750000F03A00E9
:1020900000903A012DE9F743D0F804800669D8F89A
:1020A0000040D8F80C900021C4F8001507463060B5
:1020B00001AA484602F048FD051E55DB019BD9F8F0
:1020C00000201979186802F05CFD051E4CDB311DFB
:1020D0003846FFF72DFF0546002845D1D8F80430D3
:1020E000990719D506F1180001F07EF8224B9842A5
:1020F0003ED1307EC30003F1804303F5F83304F191
:102100000C0204F59071C3F81015C3F814251B4A8E
:1021100001238340C2F804350823C4F8003598F839
:10212000083053B9C4F81031D4F810317369C4F8C9
:1021300034350123C4F838352360D8F804309A07C1
:102140005CBF4FF48072C4F80423DB0644BF4FF435
:102150008003C4F804333369C4F844350023C4F859
:1021600048350123A360E360284603B0BDE8F0834F
:102170006FF00405F8E700BF0000AD0B00F0014070
:10218000F8B5076904460D4602F0D9FE10B92D4B8B
:102190001B788BB94FF02003EFF3118683F312887D
:1021A000BFF36F8F6068314602F066FC30BB86F388
:1021B0001188BFF36F8FEDE76426606802F05CFC66
:1021C00070B9012002F0A2FD013EF6D100212120CC
:1021D00001F0FCFDF0E786F31188BFF36F8FF5E7A0
:1021E0004FF02003EFF3118683F31288BFF36F8F54
:1021F0006068314602F040FC0028ECD03B691D705D
:10220000626838691368C3F844050120C3F84805BB
:102210000020C3F82001D3F82041C3F858015268C8
:10222000D3F85801D20641BF0822C3F800254FF465
:102230008002C3F8042301229A6081F31188BFF35E
:102240006F8FF8BD910F002010B501238340114A14
:10225000BFF35B8FDC4352E8001F01EA040C42E845
:1022600000CEBEF1000FF6D1BFF35B8F4FF480328A
:1022700002FA00F002F1804202F58052C2F808032F
:10228000BFF35F8FBFF36F8F0B4214BF012000209D
:1022900010BD00BFB40800201949F8B5044622F06B
:1022A0007F450868C1E90023A5F50013101AB3F5AE
:1022B000400F22D2134B1B681A0A1B065E19124BE1
:1022C00042F10007C3E90067012601F0DDFEA3002B
:1022D00003F1804303F58833D3F84025AA420BD19C
:1022E0001EB94FF40002C3F84025084B4FF480306C
:1022F00000FA04F4C3F84443F8BD0026E5E700BF44
:10230000D0010020B8080020B801002000100140D2
:1023100019B3BFF35B8F0123104A834052E8001FBB
:10232000194342E8001CBCF1000FF7D1BFF35B8FEB
:102330000B4A4FF480338340C2F80433094BBFF398
:102340005B8F1B68BFF35B8F23FA00F0C30742BFAC
:10235000054B4FF40032C3F800217047B408002049
:1023600000100140B008002000E100E00D4B1868AB
:10237000010A0006BFF35F8F0B4BD3F80435181822
:1023800041F10001B3F5801F0AD2084BD3E90023C5
:10239000904271EB030303D210F1807041F1000110
:1023A000704700BFB808002000100140B8010020AD
:1023B0002DE9F04F85B0164698460546FFF744FFD5
:1023C0000090FFF7D3FFB04271EB080378D2464B81
:1023D000301A68EB0101984271F1000380F08180AE
:1023E000424B03EB0513D3E902ABD84508BF564572
:1023F00051D04FEA850909F1804905F1500709F5E7
:102400008839BF004FF4803101FA05F3BFB226F0DE
:102410007F4207F180470193D9F84005344B07F517
:1024200088371446D3F80415401A20F07F4021F075
:102430007F4C0128C9F840C507D1CDE902211320FE
:1024400002F07FFEDDE90221294B01F1020CA4EB31
:102450000C0020F07F40B0F5000F88BF64460020DC
:10246000386038680198C3F8440324F07F40C9F805
:102470004005D3F80405814206D0201A023820F026
:102480007F40B0F5000F19D8A41A24F07F4414EB54
:10249000060A48F1000B15490E982B0101EB0512B5
:1024A000C2E902ABC8500F9B536000242846009934
:1024B000FFF72EFF204605B0BDE8F08F2046B1E7BC
:1024C00001230C4ABFF35B8FAB4052E8001F194356
:1024D00042E800100028F8D1BFF35B8FB246C34634
:1024E000D9E76FF01504E1E701000001C001002009
:1024F00000100140B008002073B5194B194D00249D
:102500004FF0FF304FF0FF31C5F80845C3E9020135
:102510004FF48033C5F80433134B02264FF40032D6
:102520000121C5F804631120C3F880212246FEF77B
:102530006BFE1120FEF74AFE0C4A0123AB602B60B4
:1025400013600B4B0B4A0093019400232046FFF7C6
:102550002FFF3046FFF7F6FA204602B070BD00BFED
:10256000C00100200010014000E100E0B40800209C
:1025700099220000FFFF7F002DE9F743354CD4F886
:1025800004339A070BD5D4F8043143B1324A0023FF
:10259000C4F80431D4F804311368013313604FF0E8
:1025A0002003EFF3118283F31288BFF36F8FD4F807
:1025B0000433DB0312D5BFF35B8F284B53E8001FB6
:1025C00021F0010043E80006002EF7D1BFF35B8F36
:1025D000002936D1D4F84031002B32D1002382F3C8
:1025E0001188BFF36F8F4BB3FFF7C0FE4FF020038E
:1025F000EFF3118C83F31288BFF36F8F184BD3E97D
:102600000267B04271EB07024FF0000220D34FF097
:10261000FF384FF0FF39D3E90015C3E902891A608A
:102620004FF48033C4F848338CF31188BFF36F8FB5
:1026300021B1009532463B460020884703B0BDE8F3
:10264000F0830023C4F84031D4F840310123C6E7B9
:102650001146E9E700100140B8080020B00800204A
:10266000C0010020431C13B521D0012821DDB0F5A5
:10267000000F20DA441EFFF779FE104BD3E9001358
:10268000401AB0F5000F28BF0024013002190C4891
:10269000824228BF024652184FF0000009490190BB
:1026A000009143F10003FFF783FE02B010BD044820
:1026B000E0E70024DFE7024CDDE700BFD0010020A7
:1026C000FFFF7F009922000008B5FFF74FFE024B85
:1026D0001B68C01A08BD00BFD001002000F01F0118
:1026E00040090128044B4FF0010218BF4FF0A043EE
:1026F0008A40C3F80C2570470003005030B500F441
:102700008054002C08BF15464FEA0323C0F3811202
:102710001CBF0125002100F01F0410F0200F43EA28
:102720008202064842EA010208BF4FF0A04004F5C9
:10273000E07442EA450240F8242030BD0003005016
:1027400000F01F0140090128044B4FF0010218BF9F
:102750004FF0A0438A40C3F808257047000300509B
:102760004FF08053D3F83021082A06D1D3F8343102
:10277000052B02D8024AD05C70470020704700BF8A
:10278000AA560000024AD2F80034002BFBD0704752
:1027900000E0014010B502F0AFFA40B14FF08043C5
:1027A0000022C3F80C21C3F81021C3F8382502F029
:1027B000A3FA002846D04FF08052604BD2F80414A0
:1027C000C3F82015D2F80814C3F82415D2F80C1455
:1027D000C3F82815D2F81014C3F82C15D2F8141425
:1027E000C3F83015D2F81814C3F83415D2F81C14F5
:1027F000C3F84015D2F82014C3F84415D2F82414B5
:10280000C3F84815D2F82814C3F84C15D2F82C1484
:10281000C3F85015D2F83014C3F85415D2F8341454
:10282000C3F86015D2F83814C3F86415D2F83C1414
:10283000C3F86815D2F84014C3F86C15D2F84424D4
:10284000C3F87025FFF78CFF18B13D4B3D4AC3F824
:102850008C26FFF785FF18B13B4BFB22C3F81825E8
:10286000FFF77EFF70B14FF080414FF08053D1F8F9
:10287000E42ED3F8583222F00F0203F00F03134373
:10288000C1F8E43EFFF76CFF20B1304B4FF400720B
:10289000C3F8402602F030FA48B14FF08043D3F835
:1028A0000024D20744BF6FF00102C3F800244FF0A8
:1028B0008053D3F83021082A0ED1D3F83431052BB8
:1028C00002D8234AD35C3BB14FF01023D3F808223F
:1028D0004FF08043C3F858254FF01023D3F800225F
:1028E000002A03DBD3F80432002B22DA1949012332
:1028F0004FF01020C1F804351224FFF743FFC0F851
:102900000042FFF73FFFC0F80442FFF73BFF002300
:10291000C1F80435FFF736FFBFF34F8F0E490F4B59
:10292000CA6802F4E0621343CB60BFF34F8F00BF6D
:10293000FDE70B4B0B4A1A6010BD00BF00C0004002
:10294000005000404881030000F000400090024029
:10295000A456000000E0014000ED00E00400FA058C
:10296000640000200090D00370B501250268B2FA1F
:1029700082F3C3F11F035E1CDCB214D0BFF35B8F84
:1029800005FA03F322EA030350E8006F964204D1EC
:1029900040E8003CBCF1000FF6D1BFF35B8FE5D1FE
:1029A00002480C7070BD0248FCE700BF0000AD0B90
:1029B0000200AD0B0368CB40DB0710B515D4012333
:1029C00003FA01F10368BFF35B8F41EA030250E8A9
:1029D000004F9C4204D140E8002CBCF1000FF6D11E
:1029E000BFF35B8FEED1024810BD0248FCE700BF89
:1029F0000000AD0B0400AD0BF7B5044618B101287B
:102A000029D003B0F0BD4FF080430222C3F8082361
:102A1000C3F80401D3F804210122DA6001239C42A7
:102A20008DF8073014BF00250DF1070542F210772D
:102A30004FF08046D4B1012CE3D125B1D6F80C3447
:102A400003F001032B70D6F80C34DB0318D4134BBE
:102A500000225A71D5E74FF080430022C3F80803E3
:102A6000C3F80021D3F800215860D7E725B1D6F884
:102A7000183403F003032B60D6F81834DA03C0D5FA
:102A80002DB9012002F042F9013FD3D103E09DF8B6
:102A90000730012BF5D0012CD9D0B2E7BC080020BB
:102AA000044B1A7922B9012218609A8002487047B3
:102AB00002487047BC0800200000AD0B0C00AD0BB5
:102AC0004FF0804310B5D3F800216AB10022C3F85B
:102AD0000021D3F800210122C3F80823114B5879B3
:102AE00010B95A711B6898474FF08043D3F80421FE
:102AF00072B10022C3F80421D3F80421D3F81824BA
:102B0000D3F81814920704D10122C3F818259A604B
:102B100010BD0222C3F80823024BBDE810401B6819
:102B200001201847BC080020036803F01F025B095E
:102B3000012B0260024818BF4FF0A040704700BF51
:102B400000030050034B083033F81000C0F340106E
:102B5000704700BF6800002070B500F108030C4CFE
:102B600034F81330DA0505460E4607D5C3F3432380
:102B700004EBC30254F8333052689847A3682BB172
:102B8000E26831462846BDE87040184770BD00BF76
:102B900068000020124A083010B432F81030D9050D
:102BA0001BD5C3F3432123F4F85322F8103002F16C
:102BB0001004002034F8023B13F4807F03D0C3F3E9
:102BC0004323994209D001303028F3D1002342F841
:102BD0003130044810BCFFF7EDBE10BC704700BF99
:102BE00068000020DC00002038B50246FFF7AAFF8D
:102BF000094C02F1080540B134F8153007495B0B68
:102C000003F5A273002041F823001046FFF7C2FF2E
:102C1000002324F8153038BD680000200060004013
:102C20002DE9FF41044617461D4621B34E4E00F1E3
:102C3000080836F818309B0706D5FFF783FF18B150
:102C40004A4804B0BDE8F0810023CDE900338DF897
:102C50000E308DF80F300DF10F020B4620460DF1AE
:102C60000E0102F0A1F836F8183023F0020343F009
:102C7000010326F8183097B13B4B3E787A6804F18F
:102C8000080033F810108F070CD5002AD8D133F87C
:102C9000102022F01C0242EA860223F81020CDBB4D
:102CA0003348CEE721F02001C904C90C23F81010E5
:102CB000002AECD0032EC3D817782EB92D4A07F579
:102CC000A27142F82160E2E7BA0002F1804202F507
:102CD000C04241EA4731D2F810C52CF0030CC2F8CB
:102CE00010C5D2F810C52CF44F3C2CF4407CC2F82F
:102CF00010C5D2F810E54FEA042C0CF47C5C4EEAC7
:102D0000064E4CEA0E0C41F0200123F81010C2F8D8
:102D100010C5BCE7D5E900672046FFF73BFF002E52
:102D2000BED0114D2B689E4204D16B689F4201D1E9
:102D300000220AE010480DF10F01FFF715FE0C4BC1
:102D400098427FF47EAF9DF80F2045F8326005EB86
:102D5000C20308345F6035F8143043EA422343F479
:102D6000807325F814309BE7680000200400AD0B49
:102D70000000AD0B00600040DC000020F0B5044610
:102D800085B0154619B3334E00F1080736F8172001
:102D9000930703D4FFF7D6FE002858D112F01C0F7A
:102DA00002D04B78012B52D001238DF80F30002335
:102DB000CDE900134A1C8B1C20460DF10F0101F0D8
:102DC000F3FF36F8173043F0030326F8173015B930
:102DD000214805B0F0BD1F4E04F1080736F8170072
:102DE000830734D595F800C06146890020F02000A3
:102DF00001F18041C00401F5C041C00C26F8170064
:102E00000023C1F810356A78002AE1D0D1F81035D6
:102E1000AD7823F4991323F4F853C1F81035D1F8A1
:102E200010E5230203F47C53120402F4403243EA17
:102E30000E0313432A0502F4801240EA4C30134378
:102E400040F0200026F81700C1F81035C0E703480D
:102E5000BFE700BF680000200000AD0B0400AD0B11
:102E6000014BC3E9020170476800002008B5024623
:102E7000FFF768FE38B1054B0548083233F81230C9
:102E80005B0B0B7008BD0348FCE700BF6800002027
:102E90000000AD0B0400AD0B38B50F4C94F8785022
:102EA000BDB96022294604F1100001F0BCFC0620E7
:102EB000FEF78CF9094B0A48C3F87C51D3F87C2102
:102EC0004FF00042C3F80423012384F8783063678D
:102ED00038BD0448FCE700BF6800002000600040E7
:102EE0000000AD0B0500AD0B034B93F878000038E4
:102EF00018BF0120704700BF68000020014601484C
:102F0000FFF758BDD800002001460148FFF72CBD4F
:102F1000D800002037B50446FFF714FE04F108027C
:102F20001E4B33F81230E8B113F002051AD15B0BD7
:102F30009A0002F1804000F5C24002F1804202F5A1
:102F4000C04205600068D2F8100540F00100C2F8E8
:102F5000100529B1012202FA03F3114AC2F8043321
:102F600003B030BDC3F38203042B12D0052B12D063
:102F700001A80194FFF7D8FD019BD0F81015D940A6
:102F800001F001010231204603B0BDE8304001F0FC
:102F900052BF0321F7E70221F5E700BF68000020D8
:102FA0000060004008B50246FFF7CCFDC0B102F159
:102FB00008010E4B33F81130990711D45B0B012235
:102FC0009A409B000A4903F1804303F5C043C1F8CE
:102FD0000823D3F8102522F00302C3F8102508BDFA
:102FE000BDE808400021104601F025BF6800002020
:102FF000006000400E4B00F1080213B533F81230A8
:10300000DB07044611D5FFF7CDFF2046FFF7ECFDA7
:1030100001A80194FFF788FD019B03F5E0730222EC
:1030200040F82320034802B010BD0348FBE700BF6F
:10303000680000200000AD0B0400AD0B2DE9F04F3F
:10304000644B65486549002687B0012234461D68F7
:1030500035B1D0F8045315421EBF1C601D681643DD
:1030600004338B424FEA4202F1D1DFF86C81D8F889
:103070007C31002B00F091804FF0A043D3F8202545
:103080000492C3F82025D3F820280592C3F82028FD
:1030900000270DF110097B0100934FF0010A49E070
:1030A000009B4F4A94FAA4F4B4FA84F41C4404F14B
:1030B0000803E00832F81330039404F007020AFA18
:1030C00002FC19F8002022EA0C0209F8002003A8EB
:1030D000C3F382059908FFF727FD039A02F5E07212
:1030E0004B0750F82220AB46C2F3014229D52046B7
:1030F0005946D5B2FFF730FD03A80394FFF714FD3E
:10310000039B03F5E07350F82330C3F301439D4262
:1031100007D10021204601F08EFE2946204601F00D
:103120008AFE03A80394FFF7FFFC039B0AFA03F34C
:10313000C0F8203559F82740002CB1D1CFB901276C
:10314000A9E7022A0CBF032102212046019201F0C7
:1031500072FE032D04D0019A022A06D1012DE0D17E
:1031600059462046FFF7F8FCDBE7032AD9D1022DA8
:10317000F5E7C8F87C41D8F87C311A494FF0A043F4
:10318000D3F820250492C3F82025D1F820350593E3
:10319000C1F8203513437FF47BAF012416B907B083
:1031A000BDE8F08F96FAA6F3B3FA83F304FA03F2BC
:1031B0009B0003F1804303F5C04326EA0206D3F8DF
:1031C0001005D3F81015C0F30520C1F30141FFF736
:1031D000C3FCE3E700610040006000402061004064
:1031E000680000200003005001460148FFF7BCBB07
:1031F000E400002010B5144C144A15490323236140
:103200006361144BA261E3614FF480632362002386
:10321000A3626362E36222660F4A6266E01D1022C7
:10322000A2662367E366636701F0D8FABFF35F8F96
:103230000A49204601F0D2FABFF35F8F2023A37121
:10324000BFF35F8F10BD00BFC4080020B056000060
:10325000B9560000910B0020810B0020BD560000E4
:103260000E4B70B553F82040013053F82060A64251
:1032700000D870BDD4E900352846984765B1EB68A1
:1032800030B10028B8BF4042FF28A8BFFF20187007
:103290005A7842F001025A700834E8E720550000DD
:1032A00008B50A4B012202201A70FFF7D9FF00F07F
:1032B00061FF0320FFF7D4FF00F03CF9FDF78EF823
:1032C000034A137B23F00103137308BD910F002001
:1032D0005802002008B50348034A0021121A01F0E1
:1032E000E6FD08BDB8010020940F002070B5002352
:1032F00086B00122CDE90423134E144D01930F2211
:10330000CDE902321249182303FB005506EBC01623
:1033100004464FF4C07000FB04110E4B00954FF4AF
:10332000A072304600F0D4F8737B0B482C7523F064
:10333000040373734FF4046303FB04041C44EE6042
:103340006C6006B070BD00BFD80100206C09002081
:1033500000140020ED3500008015002080B52D4BB5
:10336000A6B083F308882C4D2C4E6B692C4F43F488
:10337000007300246B61E02385F82230EC772C7613
:103380006C76AC7685F820406B6A43F4E0236B6280
:1033900085F82340FEF728F9FDF7FAFE4FF0FF33DA
:1033A000AB62EB62FEF758FAFEF7C0F940F2011388
:1033B000ADF8243006ABB360CDE91F44229401F090
:1033C00050FD2046FFF74CFF0120164DFFF748FF48
:1033D00000F068FC144BF561059301231349009438
:1033E000CDE903434FF480623B46CDE901442846D2
:1033F00000F06EF86A7B064622F0040228466A73E3
:1034000001F0E7FD2046FFF771FF3A4631462846B6
:10341000FDF7B8FFC01D002000ED00E06C090020A2
:10342000A132000058020020C4560000C00F002046
:1034300070B50E4B0E4CA34201D3002070BDD3E9F2
:10344000030141EA000212F003020BD19D685A61A8
:10345000AA4201D11C33EEE75E690E600132596168
:103460000144F5E76FF01500E8E700BF64010020B4
:103470006401002037B50C464FF02005EFF31181B1
:1034800085F31288BFF36F8F45695DB125602B68A6
:103490004361836901338361002081F31188BFF3A5
:1034A0006F8F11E052EA030C03D125606FF00B001F
:1034B000F3E7CDE900230246083000F049FB18B9D4
:1034C000024B9B685B69236003B030BD6C09002030
:1034D0002DE9FF410E9E0673042646730D9E8673EA
:1034E00000F158050F46D61DC0E916550C9A002567
:1034F00026F007064037C0E90655C0E91976856011
:10350000C573C56606F1400802920B9A0192884481
:103510000A9A009242460446FDF702FF044B656595
:103520009B6803B11B6F2367404604B0BDE8F08180
:103530006C0900202DE9F043294C2A4D87B026461E
:10354000AE4204F130040FD300F0C0F9244CDFF890
:1035500098904FF4004640F2E737AC4220D307B0D2
:10356000BDE8F04300F082BB54F8043C059354F8E6
:10357000103C049354F8143C039354F8183C029301
:1035800054F81C3C019354F8203C009354E90C017E
:1035900054E90A23FFF79CFF54F8303C5E65CEE700
:1035A000636A5A1C0DD023EAE37300213846C3FB3B
:1035B000060151EAC333D4F8008004D1404600F03C
:1035C0006BFA3034C9E74FF47A720023FCF798FDA8
:1035D00002460B4608F11800494600F0DBFCF0E714
:1035E0006401002064010020F34F000008B50B4C7B
:1035F0000B4D4FF02002EFF3118382F31288BFF3DB
:103600006F8F01F070FD2B78A06113B9FDF7C6FD37
:10361000EFE7FDF72BFC0028EBD1F7E76C09002062
:10362000910F00202DE9F341044617461E464FF046
:103630002003EFF3118883F31288BFF36F8FC36801
:10364000324A6BB180689168884219D057EA060304
:1036500018D188F31188BFF36F8F6FF00F000CE063
:10366000916891F90E1021610133E3609368A360C2
:1036700088F31188BFF36F8F002002B0BDE8F0819E
:103680002169F0E791F90E1090F90E309942A8BF28
:1036900019466FF07E029142B8BF11468B422EDD73
:1036A00001F05AFC0546CDE900761948224641460C
:1036B00000F04EFA0028E0D04FF02003EFF311861F
:1036C00083F31288BFF36F8F236821699C420AD06D
:1036D0004BB193F90E309942A8BF19466FF07E03A3
:1036E0009942B8BF1946A06801F036FC00B945B14F
:1036F0000748314600F0D8F86FF00A00BDE7002512
:10370000D1E786F31188BFF36F8FF5E76C090020CE
:10371000920F0020836870B504466BB3194A926813
:1037200093422CD1C368012B03D9013BC360002015
:1037300070BD4FF02003EFF3118583F31288BFF3C0
:103740006F8F0169806801F007FC204601F09DFC45
:103750000026A06050B190F90E202261866701F02A
:1037600038FC0948294600F09FF8E0E7E06085F35F
:103770001188BFF36F8FDAE76FF01500D8E74FF0CD
:10378000FF30D5E76C090020920F002038B50446C1
:103790004FF02003EFF3118583F31288BFF36F8F8F
:1037A00001F073FC48B10022826701F012FC294647
:1037B0000548BDE8384000F077B8D4E902329A42B3
:1037C00018BF0133A360F2E7920F002013B54FF04A
:1037D0002004EFF3118184F31288BFF36F8F8468A4
:1037E00044B1013C846081F31188BFF36F8F0020E6
:1037F00002B010BD52EA030406D181F31188BFF371
:103800006F8F6FF00F00F3E7CDE900230246024807
:1038100000F09EF9ECE700BF920F002038B5074D8D
:103820002C6854B1FEF750FF054B04441C61286816
:103830000021BDE8384001F066BC38BD9C0900207D
:103840006C090020F8B504460D464FF02003EFF355
:10385000118783F31288BFF36F8F104E00214FF44E
:10386000004C40F2E730316100234FF47A72E4FB00
:103870000C01FCF745FC002C094B0ADC1860094BD5
:10388000B0681D60FFF7CAFF87F31188BFF36F8F21
:10389000F8BD0228B8BF0220F0E700BF6C09002085
:1038A0009C0900209809002049B9EFF3058030B940
:1038B000054BDA699B689A4201D0FDF7DDBC81F3C4
:1038C0001188BFF36F8F70476C0900204FF0200301
:1038D000EFF3118183F31288BFF36F8F044B9A6863
:1038E000D37B013BD37381F31188BFF36F8F704794
:1038F0006C09002038B502460C480D4D01F063FB01
:10390000044600B9EC68AB684AB95A7BD20606D1C6
:10391000A26922B9DA897F2A01D9EB6138BD9C42BC
:1039200002D02046FFF77AFFEC61F7E78C09002010
:103930006C09002070B590F90D20437B002A0146E8
:1039400004DA03F07F03437301F015FB4B7B154A48
:1039500063F07F034B73D2E9083402F12005AB42D8
:103960001BD0D3B191F90E6093F90E0086420FD0AF
:10397000801B00280CDD5868C1E9003001605960E7
:103980009068431A5842BDE870405841FFF7B2BFF3
:10399000A34202D01B68002BE6D1C1E9005421608C
:1039A0005162EDE76C09002038B54FF02003EFF3CA
:1039B000118583F31288BFF36F8F174B174A9C68EA
:1039C00011688C4207D12046FFF728FF85F3118844
:1039D000BFF36F8F38BD00211160114A1268C2B168
:1039E000E2897F2A15D8627BD20612D10D4A94F95A
:1039F0000E10126891420CDB0B4A944209D01A69EE
:103A0000824203DC2046FFF795FFDCE7121A1A61B9
:103A1000DCE70022FBE700BF6C09002094090020CE
:103A20009C09002098090020D801002070B490F96A
:103A30000D20437B002A2ADBDA0628D1826932BBBB
:103A4000144A63F07F034373D2E9083402F120057E
:103A5000AB4217D0B3B190F90E6093F90E108E42BD
:103A60000BD0891B002908DD5A68C0E900321060BC
:103A7000586070BC0020FFF73DBFA34202D01B6816
:103A8000002BEAD1C0E9005420605062F1E770BC1D
:103A9000704700BF6C09002010B54FF02002EFF313
:103AA000118482F31288BFF36F8F427B510704D4D5
:103AB00084F31188BFF36F8F10BD22F004024273AC
:103AC000FFF7B4FF21460248BDE81040FFF7ECBE07
:103AD000920F002008B590F90D20437B002A014683
:103AE00004DA03F07F03437301F045FA044B98684E
:103AF000431A58425841BDE80840FFF7FBBE00BFDB
:103B00006C0900202DE9F041064615461C464FF091
:103B10002003EFF3118783F31288BFF36F8F01F057
:103B20008AFA87F31188BFF36F8FB4F1FF3F08BFA4
:103B3000B5F1FF3F08D02A46234606F11800034995
:103B4000BDE8F04100F026BABDE8F081F34F000077
:103B500010B5074B9868074B0C4618601146DDE915
:103B60000223FFF7CFFF2046BDE81040FDF784BBDE
:103B70006C09002094090020F8B504464FF020039A
:103B8000EFF3118683F31288BFF36F8F437BDA065E
:103B900049B233D182698ABB03F07F03437301F0DA
:103BA000EAF9437B174A817363F07F03437310463E
:103BB00050F8203F83421BD0D3B1576A93F90E507F
:103BC000A94210D06D1A002D0DDD5A68C4E90032EB
:103BD00014605C600120FFF78DFE012086F31188E0
:103BE000BFF36F8FF8BDBB4202D01B68002BE5D13D
:103BF000536AC4E900031C605462EBE7A173002020
:103C0000ECE700BF6C09002070B50446183001F0E5
:103C100054FA4FF02003EFF3118683F31288BFF3B9
:103C20006F8F94F90D20637B002A05DA03F07F0380
:103C30006373204601F09FF90B4D637BA86843F046
:103C400010036373031B58425841FFF753FE86F37A
:103C50001188BFF36F8FAB68A34203D1BDE87040FA
:103C600001F0A7B970BD00BF6C09002010B54FF07E
:103C70002003EFF3118483F31288BFF36F8F084B97
:103C80009A68D37B0133D3730020FFF733FE84F3AC
:103C90001188BFF36F8FBDE8104001F08AB900BFF3
:103CA0006C090020044B002103F12002C3E9082223
:103CB0000846FFF7C7BD00BF6C090020F8B54FF0FC
:103CC0002003EFF3118583F31288BFF36F8F1A4936
:103CD0008868437B03F07F03437301F04CF98B68E2
:103CE0005A7B084662F07F025A7350F8202F8242B6
:103CF0001CD0DAB14F6A93F90E6092F90E40A642D9
:103D00000FD0A41B002C0CDD5168C3E900210B600F
:103D100053600120FFF7EEFD2846BDE8F840FDF7AF
:103D2000ABBABA4202D01268002AE6D14A6AC3E9A5
:103D3000000213604B62ECE76C09002050EA0103BB
:103D40002DE9F04105460E4603D1FFF7B7FF0020ED
:103D500033E06FF00104241A4FF0FF3363EB0103EB
:103D6000012C73F1000302DA01F0E7F944194FF076
:103D70002003EFF3118883F31288BFF36F8F104F86
:103D8000104BB8681860FFF7A5FEB8680E492A46C0
:103D90003346183000F0FEF8BA68537B43F0100346
:103DA00053734046FDF768FA01F0C7F9201A63EB38
:103DB0000303012873F10003C9DBBDE8F08100BFF4
:103DC0006C09002094090020F34F0000B1F1FF3F7F
:103DD00008BFB0F1FF3F08B506D1084B9868FFF760
:103DE00013FF4FF0FF3008BDFFF7A8FF4FF47A73C1
:103DF00080FB0303C00B40EA4340F4E76C0900205A
:103E0000014B9868704700BF6C0900202DE9F04114
:103E100004464FF02003EFF3118683F31288BFF3BB
:103E20006F8F037BD9070BD586F31188BFF36F8F94
:103E3000404080F311884FF0040002DFBDE8F081BC
:103E4000437B1A0704D586F31188BFF36F8FF5E71C
:103E500023F0200242F00801D20920D14173A36867
:103E600013B1204601F08FF804F1180001F025F994
:103E700004F158074FF00008A56DBD4200D0B5B958
:103E80000120FFF737FD104B9B68A342DBD1EFF316
:103E90000583002BD7D13046FDF7EEF9D3E703F0C9
:103EA0005F0343F00803437301F065F8D7E7284642
:103EB00001F069F805F1180001F0FFF8C5F8788005
:103EC0002846FFF7B3FDD7E76C09002008B5064880
:103ED000064A0749121A00F0ECFFBDE80840054AFF
:103EE0000549064800F0E5BF00000020B4010020AD
:103EF00000570000000000000057000000000020F4
:103F0000034B1B680BB9FEF7DFBB0020704700BFF7
:103F1000A0090020104B10B51C689C4208BF00246B
:103F2000FFF7EEFFA4B1D4E904321B1A62EBE07094
:103F3000B3F1004F70F100020ADA0028ACBF184656
:103F40000020064B1B6913B19842A8BF184610BD4C
:103F50006FF00040F5E700BFE80000206C0900208A
:103F600030B5036868B10A4A5268904209D043B13B
:103F7000D3E90421D0E90445121941EB0501C3E955
:103F80000421426813605A600023C0E9003330BD49
:103F9000E8000020B3F1FF3F08BFB2F1FF3FF8B5E2
:103FA00004461F46154667D081604FF02003EFF3AB
:103FB000118683F31288BFF36F8F6FF00102531BDA
:103FC0004FF0FF3C6CEB0703002B1BDB2B4BD3E9C3
:103FD0000013521A6CEB0303551B63EB0703012D0F
:103FE00073F10002BCBF01250023C0E9045324483B
:103FF000D0E9003C834218D1C4E9000CCCF8004061
:10400000446026E0FFF77CFF013547F100072D18DB
:1040100047EBE077C4E90457E9E7521A65EB070577
:104020009C45C4E90425E7D01B68002BE4D0D3E904
:104030000417D4E904258A4275EB070EEDDA8A1AD3
:1040400067EB0505C3E904255A68C4E9003214602A
:104050005C60036883420BD09C4209D1FFF75AFF92
:1040600018B1084B1B69834202D00021FEF7FAFA0F
:1040700086F31188BFF36F8FF8BD00BFD802002010
:10408000E80000206C0900202DE9F8430446FFF702
:104090008BFC4FF02003EFF3118583F31288BFF3FD
:1040A0006F8F244FDFF89080244E3C60D8F80000DA
:1040B0003B684045D6E9002E4FEAE3710BD050B182
:1040C000D0E9044CA34271EB0C0916DAE41A6CEB4C
:1040D000010CC0E9044C9B184EEB01010024C6E919
:1040E00000313C60FFF716FF2146FEF7BBFA85F36F
:1040F0001188BFF36F8FBDE8F883A2184EEBE4710F
:10410000C6E9002100230022C0E90423FFF728FFAD
:1041100085F31188BFF36F8F836898474FF02003B2
:10412000EFF3118583F31288BFF36F8F3B681B1B7E
:104130003B60BBE7A0090020E8000020D802002077
:1041400010B54FF02003EFF3118483F31288BFF30F
:104150006F8FFFF7D5FE064B0146D3E90003081821
:1041600043EBE17184F31188BFF36F8F10BD00BF83
:10417000D8020020024A0349034800F0FBB900BFFF
:10418000C5550000C9560000D856000010B50A4CAD
:1041900023681BB101232360002010BD00F0CEF87E
:1041A0000028F7D00138062803D8044B53F8200024
:1041B00010BD034810BD00BFA40900203855000001
:1041C000FE8FFFFFBFF34F8F0549064BCA6802F40D
:1041D000E0621343CB60BFF34F8F00BFFDE700BF2A
:1041E00000ED00E00400FA0510B4094B09490A4C3F
:1041F0004FF0FE32C3F800244968C3F80424C3F822
:104200000824C3F80C240023C4F8003510BC084768
:1042100000B00250F000002000A00250D0E90012CF
:10422000014BC3E900127047F000002010B50446AE
:1042300030B16368DB0602D500232360636010BDE4
:10424000024B03485B689847F3E700BFF00000208B
:1042500054550000B0B1436893B1DB060ED501237D
:1042600050E8002F194640E8001C9CF0000FF7D1E1
:10427000012AF5D0BFF35F8F0020704703487047D5
:10428000034870476FF4E040704700BFE98FFFFFBD
:10429000EA8FFFFF68B143683BB1DB0607D5BFF388
:1042A0005F8F002303601846704703487047034838
:1042B00070476FF4E0407047EA8FFFFFE98FFFFF20
:1042C00010B5044620B1002211232260636010BDA6
:1042D0000148FFF789FFF6E77C55000070B5D0E98B
:1042E0000023134C134D6360D0E90230C4E902305F
:1042F0002260114B086818604868586088689860A8
:10430000D1E90301D8601961D5F81831DB060DD564
:104310000023C5E94533C5E96E3305F58A7090473A
:10432000236805F5DC70BDE87040184770BD00BF1C
:1043300000010020BC0900201001002038B500F069
:104340002FF820B1032400F063F8204638BD00F0B8
:1043500031F898B900F0ACF898B90F4DD5F8283974
:104360001B0EF02B08D1D5F8242A0C4B9A420AD008
:10437000072400F017F8E6E70624FAE704242046AD
:1043800038BD0024F5E7012000F092F8044600282B
:10439000F7D1C5F80C0AD8E700B002500000E020C1
:1043A0000020704700207047014BC3F8040A704793
:1043B00000B0025010B5114800F048F800B110BD2F
:1043C0000F4800F043F80028F9D10E4C204600F0C9
:1043D0003DF80028F3D10C4B0C481C6000F036F877
:1043E00001460028EBD100F02DF8044608B1204624
:1043F00010BD00F03FF82046FAE700BF480100205A
:104400003C010020440100204C010020400100201C
:1044100008B5084800F024F8074800F021F80748DC
:1044200000F01EF8064800F01BF8BDE8084000F058
:104430000BB800BF480100203C01002044010020CF
:104440004001002000207047704700BF08B5034BB3
:1044500002681B6810689847002008BD0001002012
:1044600008B5034B02685B6810689847002008BDD8
:104470000001002070B5094C094D2069AB689847D0
:1044800018B1084B08485B689847084AEB682069F0
:1044900000211160BDE87040184700BF10010020E6
:1044A00000010020F0000020A0550000B809002005
:1044B000F8B51A4D1A4E0446B26828699047E8B913
:1044C000184F3B684CB1A3B1012B19D0013B3B60A5
:1044D0002869F36898470020F8BD43B9124A0121C2
:1044E000C2F800151149D1F81029002AFBD1013377
:1044F0003B60F368286998470020F8BD0C48F8BD78
:104500000A4AD2F81039002BFBD1074A6FF07E40DF
:10451000C2F80035FFF748FF3B68D7E710010020DD
:1045200000010020B809002000A0025000B0025095
:10453000E98FFFFF034658B1426802F00302012AE7
:1045400003D0032A04D1026812B10020986070479A
:104550006FF0150070474268816002F00302032A81
:104560004FF0000203460CBF006810465A607047C7
:10457000002070470FB407B504A951F8040B01914E
:10458000FBF73EFF03B05DF804EB04B07047038B0C
:1045900013F0070305D10368002B0CBF0020032094
:1045A0007047022B05D1438B002B14BF0020042041
:1045B0007047012B05D10368002B0CBF002005209C
:1045C0007047002070472DE9F0410D460746194617
:1045D000281D90461E46FFF7BEFF044638B13346FD
:1045E000424629463846A446BDE8F0416047BDE84A
:1045F000F08110B44FF02004EFF3118284F312889D
:10460000BFF36F8F416110BC0121FBF707BF10B5ED
:104610000C4640B139B1081DFFF78CFF28B9A368DB
:1046200033F0030301D06FF0150010BD38B50C4610
:10463000054658B151B10B6843B14B6833B11C22E8
:10464000002100F0F0F82C61002038BD6FF015005B
:10465000FBE770B504460E46FFF7D9FF051E31DBB8
:104660004FF02003EFF3118183F31288BFF36F8FB4
:10467000638B208B4FF6FF75AB4200F007022ED004
:10468000022A0ED1013363831546012381F3118879
:10469000BFF36F8FB3B1002331462046FFF793FF7E
:1046A00010E0830701D0062A0ED10023336063682F
:1046B00093B9C4E90066154662B90A46204602214C
:1046C000FBF7ACFE284670BD052A0CBF6FF08505D0
:1046D0006FF004050023D9E71E606660EBE76FF01A
:1046E0000A05F7E7044608B5084611461A46A047EA
:1046F000FFF786FBFDF704F82DE9F84F9A46D378CB
:104700006F2B80460F461546A3F1410B29D024D8C4
:10471000582B14BF0A261026DDF8289032460023B5
:1047200040463946FBF7ECFC092AD4B21ED8303497
:10473000B045E4B277F1000309F8014D01D3D1454A
:1047400011D82B789B0605D5082E15D1AB7843F0F0
:104750000803AB704846BDE8F88F03F0F703702BF1
:10476000D7E70826D8E780460F46D7E7BBF1190FF1
:1047700094BF37345734DBE7102EEBD1AB7843F0DE
:104780001003E6E72DE9F0410746884615461E4628
:104790001446B442A4EB050002D33EB923782BB1F2
:1047A00014F8010B4146B8470028F2DABDE8F08161
:1047B000704708B50020FCF7D7FA00F05DBB014652
:1047C000006800F059BB00210120FFF7F6BF08B5D3
:1047D000FCF732FDBDE80840FCF70ABE013903468C
:1047E00011F8012F0AB91A70704703F8012BF7E787
:1047F000034600201A5C02B970470130FAE703460D
:1048000000201A5C0AB1884200D170470130F8E7F5
:1048100010B5431E0A44914200D110BD11F8014B5E
:1048200003F8014FF7E7C9B202440346934200D1AF
:10483000704703F8011BF9E74FF0FF307047062877
:1048400008D14FF080430122C3F80025BFF34F8FFA
:1048500020BFFDE77047002383F31188BFF36F8FFC
:1048600070470369C9B20C2201FB0233186C00F0D7
:10487000070070474FF02003EFF3118283F3128893
:10488000BFF36F8F036803F0C00343F002030360BC
:1048900082F31188BFF36F8F7047034670B50069CC
:1048A000C9B24FF02004EFF3118684F31288BFF3EE
:1048B0006F8F0C2505FB0104246C14F0C00401D09B
:1048C000A24210D105FB010001220264002086F300
:1048D0001188BFF36F8F28B95B6803EBC1014B6888
:1048E0009847002070BD4FF0FF30F0E78022FFF7BF
:1048F000D4BFF8B5069F04690546C9B24FF0200041
:10490000EFF3118C80F31288BFF36F8F0C2606FB38
:104910000146306C00F0070EBEF1010F11D1376473
:1049200000268CF31188BFF36F8F46B90C2000FB73
:104930000144C4E90E236B6853F831309847304680
:10494000F8BD00F0C000874214BF4FF0FF366FF093
:104950007706E6E713B580240094FFF7CAFF02B09C
:1049600010BD006910B4CBB21C2403FB040000216D
:1049700010BC1047002000F0D8B9002000F012BA97
:104980001046FEF703BF43685B68D3F810350B6031
:104990000020704743685B6802EA010021EA0201D7
:1049A000C3F80805C3F80C150020704743685B681E
:1049B0000020C3F80815704743685B680020C3F8FF
:1049C0000C15704743685A68D2F8043521EA030091
:1049D0000B40C2F80805C2F80C3500207047036987
:1049E000586830B558B10024814212D108689D68DA
:1049F00054B98D42586000D19860002008606AB9AF
:104A0000002030BD2846EFE78D42206008BF9C6043
:104A1000F3E705680446002DF4D13AB198685A6866
:104A20000A6059600028EBD19960EAE76FF0150041
:104A3000E7E702690B46D2E9010183E803000020A1
:104A4000704743681B68D3F88004C3F8800470473C
:104A5000436802691B68D3F8100150B15269002005
:104A600012780A70C3F81001D3F8102101221A60DD
:104A700070474FF0FF30704702680346D2F8580184
:104A800040B95B689B0706D4D2F82001003818BFF4
:104A9000012070470120704742681368D3F804135F
:104AA000C90518D5D3F82011A9B14FF02000EFF3B4
:104AB000118180F31288BFF36F8FD3F8200130B1DA
:104AC0000020C3F82001D3F820010120D86081F331
:104AD0001188BFF36F8F5268D20615D54FF02001B1
:104AE000EFF3118281F31288BFF36F8FD3F858115F
:104AF00011B10021C3F800154FF48001C3F8081369
:104B000082F31188BFF36F8F704710B500220446FF
:104B100001212820FCF778FB2820FCF757FB2046D2
:104B2000BDE81040FDF7B6BA10B5002204460121D9
:104B30000220FCF769FB0220FCF748FB2046BDE899
:104B40001040FDF7A7BA704730B543681360037A89
:104B500003F10053013BDB00456814681D44AC427F
:104B600002D96FF0010030BD65798D4202D0083462
:104B70001460F1E70020F6E709B9FDF7AFBDFDF7D6
:104B8000DFBD2DE9F0411646054600EB8107AF4237
:104B900002D10020BDE8F0812C68230CC4F3032867
:104BA000222B00F29780DFE803F0121E262B304103
:104BB0002B959595954B5595959595959595959599
:104BC0005A666B70959595757C81868B900004F084
:104BD0003F04C6F80C45286800F03F00FDF7B0FD23
:104BE000434601221CE004F03F04C6F81445434646
:104BF0000022002115E004F03F04C6F80845EAE76A
:104C000004F03F04C6F81045F1E704F03F04C6F88D
:104C10000845286800F03F00FDF760FD434600228C
:104C200001212868FDF76AFD0435B0E704F03F0470
:104C3000C6F80C45286800F03F00FDF74FFDCFE7B0
:104C400004F03F04C6F80845B8F1000F14BF43460E
:104C50000623CDE704F03F04C6F80C45F4E704F062
:104C60003F04C6F860452868C0F3403100F03F00BB
:104C7000FFF782FFB4E704F03F04C6F86445F2E7AB
:104C800004F03F04C6F86845EDE704F03F04C6F8B9
:104C90006C45E8E704F03F04C6F82445434601228A
:104CA000A7E704F03F04C6F82845F7E704F03F04FF
:104CB000C6F83045F2E704F03F04C6F83445EDE7A6
:104CC00004F03F04C6F83845E8E704F03F04C6F8AE
:104CD0003C45E3E76FF085005CE708B50020FCF792
:104CE00021FEFFF753BA08B5FCF788F9FCF73AFA4A
:104CF000BDE80840FFF74ABA4FF08053D3F83001BF
:104D0000A0F10803584258417047004700F019BA13
:104D100008B50020FCF76AFA08B9FCF757FA4FF01B
:104D200080430022C3F8182508BD08B510B101283A
:104D30002DD008BD4FF08042D2F81814D2F81834A4
:104D400013F480330BD1D2F81414C90710D5D2F85C
:104D50001C349B0708D40223C2F80433E9E701F0AE
:104D60000303012B04D01BB10020FDF745FE0023F7
:104D70004FF08042C2F818350023C2F80431D2F84F
:104D800004310223C2F8043301239360D1E74FF0CA
:104D900080430022C3F80021D3F80021C3F80403A4
:104DA0001860C6E7FDF728BEF7B5019001A8DDE958
:104DB000084617461D46FDF7B7FE019B002F00EB86
:104DC000830014BF02230023002918BF43F001030E
:104DD000002D14BF4FF00C0C4FF0000C002C43EAD8
:104DE0000C0314BF4FF4E06C4FF0000C002E43EAAC
:104DF0000C03D0F8002714BF4FF4403C4FF0000CD8
:104E000043EA0C0322EA030301B109780FB13F78AA
:104E10007F0019430DB12D78AD0039430CB12278D4
:104E200014020D430EB1367836042C433443C0F8D7
:104E3000004703B0F0BD1FB50DF10F030193002330
:104E40008DF80F1000931A461946FFF7ADFF05B015
:104E50005DF804FBFEF7CEB908B5FFF7FBFF0020B5
:104E600008BD704738B1C3681888C0F30800A0F5C2
:104E70008073584258417047F8B505460E464FF0CA
:104E80002003EFF3118783F31288BFF36F8FFEF7D0
:104E9000B7FF314604462846FFF71FFF87F3118806
:104EA000BFF36F8F2046BDE8F840FCF729BCFFF741
:104EB000BABCFFF7ADBC30B50024846141EA0204FE
:104EC00014F00304C0E9023201610CD14461A34231
:104ED00003D1C0E90000002030BD45690D600134F8
:104EE00041611144F3E76FF01500F5E7F8B50446AA
:104EF0000D464FF02003EFF3118683F31288BFF3C2
:104F00006F8F476977B900F0C0F858B12A684261DD
:104F1000876700F05EF8314604F10800BDE8F8400C
:104F2000FEF7C2BC2B6862691A602B686361A369D3
:104F3000013BA36186F31188BFF36F8FF8BDEFF3D8
:104F40000580003818BF0120704708B5FBF750FFF7
:104F5000BDE80840FFF7F7BD90F90E308B4201D055
:104F6000FEF70ABE0020704703460020C3E9020096
:104F7000C3E900337047D0E9003213605A60002360
:104F8000C0E90033704708B5FFF7F5FF437B23F016
:104F9000020343730023836008BD034620B9EFF387
:104FA00005820AB9FCF768B983F31188BFF36F8FE4
:104FB00070474FF02003EFF3118083F31288BFF3A3
:104FC0006F8FFFF7EABF03460068834208BF0020E7
:104FD000704710B54FF02003EFF3118483F312886C
:104FE000BFF36F8FFEF722FD84F31188BFF36F8F3D
:104FF00010BD10B501464FF02003EFF3118483F389
:105000001288BFF36F8F10F80B3C13F0280F0DD1EF
:1050100051F8103C18380BB1FFF7B5FF11F80B3CF5
:1050200023F0140301F80B3CFEF700FD84F3118814
:10503000BFF36F8F10BD38B504460D46FEF74AFD2D
:10504000637B43F00203637395B12B68A5609D42B7
:1050500015D0A3B194F90E1093F90E20914208D007
:10506000521A002A05DD5A68C4E9003214605C60F7
:1050700038BD6A68934202D01B68002BECD16B6884
:10508000C4E900531C606C60F2E738B54FF02003B0
:10509000EFF3118583F31288BFF36F8FFFF793FF50
:1050A000044620B1FFF76FFF183000F006F885F3D3
:1050B0001188BFF36F8F204638BD10B54FF0200226
:1050C000EFF3118482F31288BFF36F8F03683BB153
:1050D000FEF746FF002084F31188BFF36F8F10BDE9
:1050E0006FF01500F7E710B54FF02003EFF31184D0
:1050F00083F31288BFF36F8FFEF70CFF84F31188E0
:10510000BFF36F8F10BD70B504460D464FF02003FE
:10511000EFF3118683F31288BFF36F8FFEF7FAFE69
:10512000012805DDA04203DB29462046FDF79AFA57
:1051300086F31188BFF36F8F70BD08B5FFF700F8D5
:0C51400008BD08B1FCF704BC70477047C4
:08514C00E8AFFF7F0100000045
:10515400C518000000000000D9190000B451000077
:10516400594E00000000000031340000000000002F
:10517400711D0000E4510000711D0000CC510000BD
:10518400E34C0000000000000B4B0000FC51000049
:10519400294B000014520000451C000000000000D0
:1051A400F924000000000000E74C000000000000AB
:1051B4005D5600004C5400003054000050010020A3
:1051C4003C080020C45300007A5600008C540000B0
:1051D400685400005801002098080020BE530000C5
:1051E4006C5600009C5400006854000054010020D8
:1051F400A4080020B8530000885600001055000091
:10520400EC5400005C01002048000020B253000070
:105214009656000000550000EC5400006001002088
:085224002C000020AC53000037
:10522C00C12A00000B4D000000000000C747000021
:10523C0014520000994A000000000000C74700000B
:10524C0000000000C747000000000000C747000036
:10525C003D3000000B4D000000000000C74700006F
:10526C0000000000C747000000000000C747000016
:10527C0000000000C747000000000000C747000006
:10528C0000000000C747000000000000C7470000F6
:10529C0000000000C747000000000000C7470000E6
:1052AC0000000000C7470000000000007925000046
:1052BC0000000000C747000000000000C7470000C6
:1052CC0000000000C747000000000000C7470000B6
:1052DC0000000000C747000000000000C7470000A6
:1052EC0000000000C747000000000000C747000096
:1052FC0000000000C747000000000000C747000086
:10530C0000000000C747000000000000C747000075
:10531C0000000000C747000000000000C747000065
:10532C0000000000C747000000000000C747000055
:10533C0000000000C747000000000000C747000045
:10534C0000000000C747000000000000C747000035
:10535C0000000000C747000000000000C747000025
:10536C00FC510000994A000000000000C7470000F3
:10537C0000000000C747000000000000C747000005
:10538C0000000000C747000000000000C7470000F5
:10539C0000000000C747000000000000C7470000E5
:1053AC0000800080FF7F00800080FF7F00800080F5
:0E53BC00FF7F00800080FF7F00800080FF7F69
:0653CA00FFFFFFFFFFFFE3
:1053D0000338FDD87047000000000000B34700000C
:1053E000F51000000910000051100000A910000085
:1053F000200000200800002018000020000000000D
:1054000010000020000000200000000000000B063B
:105410000200000018540000000000004856000080
:1054200026000207000000205056000022000B1149
:10543000E51A0000ED48000055490000000000009A
:10544000634800000000000000000000811A000016
:10545000191B0000754900007B49000095190000E8
:105460006519000000000000ED1D000087490000E4
:1054700095490000AD490000B9490000C549000048
:105480009D1C0000DF49000000000000FFFFFFFF3F
:10549000000000500000000000000000FFFF0000BE
:1054A0000003005000000000010000000020004048
:1054B000DC5400000100000000800240E4540000C1
:1054C000010000000600000005000200C800010005
:1054D000C7000300E100010022000000C4540000E6
:1054E00004000000D454000002000000514A0000F3
:1054F00081210000434A0000311F0000334A0000B0
:10550000002000400200000000000000AC54000039
:10551000008002400200000000000000B8540000BB
:1055200054510000A4510000AC510000B4510000DF
:10553000B4510000F5FFFFFFFF8FFFFFFF8FFFFF5C
:10554000FE8FFFFFFE8FFFFFFD8FFFFFFC8FFFFF32
:10555000FC8FFFFF6D757465785F6672656520630B
:10556000616C6C65642077697468204E554C4C20E2
:10557000706172616D6574657200000043616E2731
:105580007420696E697469616C697A65206D7574DF
:1055900065782C20776173204E554C4C0D0A000025
:1055A000436F756C64206E6F74206C6F636B20703A
:1055B0006F7765722073617665206D75746578000C
:1055C0004F6D67210A00286E696C29004661696C7D
:1055D000656420746F207265626F6F743A20737017
:1055E000696E6E696E6720656E646C6573736C7945
:1055F0002E2E2E0A006D757465785F696E697420B1
:1056000063616C6C65642077697468204E554C4CFE
:1056100020706172616D6574657200436F756C64B2
:10562000206E6F7420616C6C6F63617465206D75A2
:10563000746578206265666F726520696E69746949
:10564000616C697A696E6700464C4153485F30006F
:105650005352414D5F3000000001000000636C6F49
:10566000636B403430303030303030006770696FF9
:10567000403530303030333030006770696F40353E
:10568000303030303030300075617274403430303A
:10569000323830303000756172744034303030321E
:1056A0003030300000000000000101000000000068
:1056B0005465726D696E616C0052545400534547D5
:1056C000474552006D61696E0076332E312E3939AF
:1056D0002D6E6373312D31002A2A2A20426F6F7498
:1056E000696E67205A6570687972204F5320627521
:1056F000696C64202573202573202A2A2A0A000059
:1057000071450000FFFFFFFF640100200100000061
:1057100078010020010000008C0100200100000041
:10572000A001002001000000394800000000000036
:1057300000C2010000010300000000007D0B0020FA
:105740007E0B0020000000000000000000C20100ED
:1057500000010300000000007F0B0020800B0020F0
:10576000000000000090D0030000000000000000D6
:105770000000000000000000000000000000000029
:105780000000000000000000000000000000000019
:105790000000000000000000000000000000000009
:1057A00000000000000000000000000000000000F9
:1057B00000000000000000000000000000000000E9
:1057C00000000000000000000000000000000000D9
:1057D0000000000000000000FF00000000000000CA
:1057E00000000000FFFF0F00E8000020E80000209C
:1057F00000000000C5410000A809002011000000C1
:10580000C14200002D4200005542000095420000B8
:1058100034010020F80000202C01002000000000CE
:1058200024010020AC09002011000000B009002074
:1058300011000000B4090020110000001401002034
:105840002001002018010020100100204401002048
:105850000000000000000000000000000000000048
:045860000000000044
:10586400640100206401002000000000000000002A
:105874000E000000780100207801002000000000E4
:10588400000000000E0000008C0100208C010020AC
:1058940000000000000000000E000000A001002035
:1058A400A001002000000000000000000E00000025
:0400000300001625BE
:00000001FF
